S01300007465636C615469656D706F2E737265639A
S113000071C000008EC000008CC000008AC00000D7
S113001088C0000086C0000084C0000082C00000C8
S113002080C000007EC000007CC000007AC00000D8
S113003078C0000076C0000074C0000072C00000E8
S113004070C000006EC000006CC000006AC00000F8
S113005068C000003EC1000064C0000062C000002F
S113006060C000005EC000005CC000005AC0000018
S113007058C0000056C0000054C0000052C0000028
S113008050C000004EC000004CC000004AC0000038
S113009048C0000046C0000044C0000042C0000048
S11300A040C000003EC000003CC000003AC0000058
S11300B038C0000036C0000034C0000032C0000068
S11300C030C000002EC000002CC000002AC0000078
S11300D028C0000026C0000024C0000022C0000088
S11300E020C0000011241FBECFEFD1E2DEBFCDBF80
S11300F000E00CBF12E0A0E0B2E0E4ECF3E000E0CA
S11301000BBF02C007900D92AA36B107D9F722E0BF
S1130110AAE6B2E001C01D92AC39B207E1F799D06A
S11301204FC16ECF83E085BD16BC88E187BD82E0F8
S113013080936E0084BD7894089510927102109299
S11301407002109273021092720210926F02109257
S11301506E02089510926B0210926A0210926D0260
S113016010926C02089587E690E09093C500809306
S1130170C40082E08093C00088E18093C10086E0DF
S11301808093C2000895E0ECF0E0908195FFFDCFEC
S11301908093C6000895CF93DF93EC018881882370
S11301A029F02196F0DF89918111FCCFDF91CF9165
S11301B00895E0ECF0E080818823ECF78091C6009C
S11301C00895CF92DF92EF92FF920F931F93CF93F4
S11301D0DF93FC01CB018F01EF0121E030E0C42E5D
S11301E0D12C01C09A01790141E0E41AF108B60169
S11301F0D3D08A30910518F0895C888302C0805D71
S11302008883A9014F5F5F4F2196862F972F009710
S113021049F7DF01A20FB31F1C92E114F10481F02E
S1130220FD0180E090E0D8012C91019632913D933C
S11302308D0120839701281B390B8217930798F3AC
S1130240DF91CF911F910F91FF90EF90DF90CF90AE
S1130250089568DF88DFC1E0D0E080E092E09BDFB2
S1130260A8DF8D30E9F769DF80916E0290916F020B
S1130270892BD1F380E292E08EDF6CDF9ADFD0939A
S11302806B02C0936A0280916C0290916D02892B7B
S113029021F085E392E07FDFE0CF609172027091FC
S11302A073024AE084E792E08CDF609170027091FF
S11302B071024AE088E892E084DF82E592E06BDF35
S11302C084E792E068DF8EE25EDF88E892E063DF35
S11302D0C4CF1F920F920FB60F9211242F938F93B6
S11302E09F93809170029091710201969093710294
S11302F08093700280917002909171020B9790F03C
S113030080917002909171020A9790937102809388
S1130310700280917202909173020196909373021D
S1130320809372028091720290917302843F914093
S113033060F080916E0290916F02892B31F481E01C
S113034090E090936F0280936E0280916A02909184
S11303506B02892B99F080917002909171020A9737
S113036068F48091720290917302883E934030F455
S113037015BC10926D0210926C0206C081E090E0F0
S113038090936D0280936C029F918F912F910F90A7
S11303900FBE0F901F901895AA1BBB1B51E107C0FD
S11303A0AA1FBB1FA617B70710F0A61BB70B881F01
S11303B0991F5A95A9F780959095BC01CD01089590
S10703C0F894FFCFDB
S11303C40A0D50726573696F6E61203C656E7465C5
S11303D4723E207061726120696E696369617200A2
S11303E40A0D50726573696F6E6120756E612074B5
S11303F465636C61000A0D4572726F722C20696E1C
S113040474656E74656C6F206465206E7565766FB3
S11304142E000A0D5465636C612070726573696FF4
S10D04246E61646120656E3A2000E9
S9030000FC
